:020000040800F2
:1000000090070020A101000877280008D5240008E7
:10001000752800083F120008712A0008000000003F
:100020000000000000000000000000007B28000825
:10003000CD15000800000000792800087D28000880
:10004000BB010008BB010008BB010008BB010008A0
:10005000BB010008BB010008BB010008BB01000890
:10006000BB010008BB010008BB010008BB01000880
:10007000BB010008BB010008BB010008BB01000870
:10008000BB010008BB010008BB010008BB01000860
:10009000BB010008BB010008BB010008BB01000850
:1000A000BB010008BB010008BB010008BB01000840
:1000B000BB010008BB010008BB010008BB01000830
:1000C000BB010008BB010008BB010008BB01000820
:1000D000BB010008BB010008BB010008BB01000810
:1000E000CF150008BB010008BB01000800F002F8B2
:1000F00000F047F80AA090E8000C82448344AAF17B
:100100000107DA4501D100F03CF8AFF2090EBAE878
:100110000F0013F0010F18BFFB1A43F0010318473B
:10012000D0300000F0300000103A24BF78C878C109
:10013000FAD8520724BF30C830C144BF04680C60ED
:10014000704700000023002400250026103A28BF35
:1001500078C1FBD8520728BF30C148BF0B60704739
:10016000662902F07C87002070471FB500F02AFB4B
:1001700004000020002102F059FEE0601FBD10B510
:1001800010BD00F01FFC1146FFF7EFFF02F09CFCD2
:1001900000F03DFC03B4FFF7F2FF03BC00F080FC6D
:1001A0000948804709480047FEE7FEE7FEE7FEE70B
:1001B000FEE7FEE7FEE7FEE7FEE7FEE70448054947
:1001C000054A064B70470000DF280008ED000008D4
:1001D0009001002090070020900300209003002051
:1001E0000FB41CB5074B06AA7B44694600900598DE
:1001F00000F0CFFA0020694600F0DEFA1CBC5DF882
:1002000014FB0000CD0500002DE9F0474FF0000A77
:1002100089460446C0F820A02046E16888470028A7
:1002200076D0252806D0D4E901219047206A401CC9
:100230002062F1E7E168204600258847C4F81CA049
:1002400006460027C4F818A02A2E09D0304602F02E
:1002500034FC38B304EB8708303EC8F8186019E066
:1002600059F8041B204604EB87029161E168884736
:10027000012F064618D1E069002820DA25F0200574
:100280001DE0D8F8180000EB800006EB4000303885
:10029000C8F818002046E1688847064602F00DFCC1
:1002A0000028EED1012F0AD02E2E08D12046E16879
:1002B00088477F1C0646022F45F02005C4DBA06955
:1002C000002803DA404245F00105A061E80701D0AB
:1002D00025F01005B6B1A6F14100192802D8203644
:1002E00045F400654A463146204625604D46FFF7F5
:1002F00037FF58B1012806D0ED1D25F0070000F1A9
:10030000080989E704E005F1040985E730468AE732
:10031000206ABDE8F0874FF0000200B5134694460E
:100320009646203922BFA0E80C50A0E80C50B1F14D
:100330002001BFF4F7AF090728BFA0E80C5048BF61
:100340000CC05DF804EB890028BF40F8042B08BFFF
:10035000704748BF20F8022B11F0804F18BF00F8FB
:10036000012B704770477047704770472DE9FF4F6A
:100370000C461E464FF0FF378BB0D2E90001DDF886
:1003800060800A908A46C1F30A5505B93D460021AE
:1003900008464FF00000BAF1000F00F4400005DA03
:1003A00000EB80004FF4400101EA50004FEA905901
:1003B000B9F1010F00DDB9460A9850EA4A000ED0A3
:1003C00044F61050A5F2FF3545432F14B8F1000F45
:1003D0001ED07542291E1EDDC9F100021CE0B8F1D5
:1003E000010F4FF0000001D0302103E0F24305E09F
:1003F0002154401CB042FBDB304600220021215436
:100400000B99C1F80880C1E900200FB0BDE8F08F5A
:10041000BD1B6D1CDEE74A4600DA694206A800F003
:100420005BFA06AB93E8070003AB83E8070050468E
:100430000A9900F03CFB8DE80700A0F500501F383A
:1004400000900398002D0ADD42F21F014A4608443D
:10045000002303A90390684600F0A5FD09E0A0F57C
:1004600000504A461F38002303A90390684600F055
:10047000AFFD8DE807000004000C03D04FF0FF3003
:10048000410800E01046B8F1000F03D000220092AE
:1004900015461EE0751E05D400F098F930326255FD
:1004A0006D1EF9D5B3460122084302D000227F1CFD
:1004B00004E02078302801D100227F1E002A09970D
:1004C00084D01DE0112D07DA00F080F9303262553A
:1004D0006D1C50EA0102F5D1084302D00098C8B162
:1004E0000EE00021681E05E0235C625C6354225428
:1004F000401E491C8142F7DBAB46A81B401E0990F9
:10050000002004F80B000B98099AC0F80880C0E995
:10051000002B7AE711264FF0000857E72DE9F04F3E
:1005200088460446D21D22F0070191B0D1E90001AE
:10053000CDE90A0102F09DFA02460B98C00F01D0E6
:100540002D2007E02068810701D52B2002E0202123
:1005500001EAC000032A099001D0072A05DB0346FF
:100560004146204600F078F90BE12078800601D55D
:10057000E06900E00620B8F1650F814606D0B8F1C9
:10058000660F18D0B8F1670F70D131E00020B9F1D3
:10059000110F009001DB112301E009F101030AAA08
:1005A00001A90CA8FFF7E2FEDDE90C70002609F1B5
:1005B0000105834647E001204B4600904FF000477D
:1005C0000AAA01A90CA8FFF7D1FEDDE90DB00C992C
:1005D0005D46002610B909F101000D18B9EB0500C0
:1005E00003D4C0F1FF3609F10105A5EB09002BE0AA
:1005F000B9F1010F01DA4FF001090020B9F1110F33
:100600000090484601DD112300E003460AAA01A933
:100610000CA8FFF7ABFEDDE90C704D4600268346C3
:10062000207800070AD4AB4500DA5D4601A8012D09
:1006300004DD411911F8011C302907D04F4502DAB9
:1006400017F1040F04DA012082460FE06D1EEEE779
:10065000002F02DCED1B3E4403E0781CA84200DDC5
:100660007D1CB81B00F1010A4FF0004720780007FD
:1006700003D4AA4501DB4FF0FF3A0021B7F1004F48
:100680000DF143088DF8431024D002202B23002FB6
:1006900001DA7F422D230A21021EA0F1010000DCB5
:1006A0005FB197FBF1FC97FBF1F201FB1C7C174655
:1006B0000CF1300C08F801CDEEE7A8F10100037051
:1006C0002188090501D5452100E06521A0F1010837
:1006D00000F8011C09980FA9A1EB0807FF1D00B144
:1006E0000120411901EBEA70A1693844081A401E43
:1006F000A0612078C00602D42046AFF3008009989C
:1007000028B1D4E901219047206A401C206220785A
:10071000C00622D52046AFF300801EE0002E04DB89
:10072000B34502DD01A8805D00E03020D4E901215D
:100730009047206A401C2062761CAAF101005FEA03
:10074000000A0AD100F03EF8C0680168405CD4E9B4
:1007500001219047206A401C2062281EA5F1010556
:10076000DCDC07E0D4E9012118F8010B9047206A8E
:10077000401C2062381EA7F10107F3DC2046AFF3CE
:100780000080032011B041E601694A1C026108782B
:10079000704700B58FB0CDE90131002105910549C1
:1007A0007944CDE9031011466846FFF72DFD0FB0DF
:1007B00000BD0000E5FFFFFF0A6802F8010B0A60B8
:1007C00070470000004870474C01002030B5B0F180
:1007D0000A024FEA900E71F100034EEA817EB0EBFF
:1007E0000E0061EB91014FEA101E4EEA017E10EB04
:1007F0000E0041EB11114FEA102E4EEA016E10EB84
:100800000E0041EB11214FEA104E4EEA014E10EB63
:100810000E0041EB1141401841F100014FEAD000B8
:1008200040EA41704FEAD10110EB80054FEA8104A4
:1008300044EA907444EB01046D1944EB0404521B28
:10084000A3414FF0000348BF0A3200D530BD401C21
:1008500041F1000130BD00002DE9F0411F46044682
:1008600003260168072A01F4006004DB08B116A51D
:1008700005E016A503E008B115A500E015A521F0D7
:1008800010002060A069C01EA0610FB1401EA061D1
:100890002046AFF300804FB1D4E90121384690479C
:1008A000206A401C2062C01C206206E0206AFAE731
:1008B000D4E9012115F8010B9047761EF8D22046A5
:1008C000AFF30080BDE8F0814E414E006E616E00D6
:1008D000494E4600696E66002DE9F047814616468E
:1008E0008AB0354878440DC88DE80D003248784408
:1008F000801C03AC0DC884E80D0041F69B30084411
:10090000372190FBF1F290FBF1F5A5F1800501FB99
:1009100012041B3C02D56442012000E00020DFF8F5
:1009200098A080460027FA44AAF1BE0A0EE0E0072C
:100930000AD03246684607EB470101230AEB8101E2
:1009400000F046FB8DE8070064107F1C002CEED100
:10095000194F7F44AE3F19E0E80715D007EB0410AC
:100960000DF1180A90E80E008AE80E00C068F04207
:1009700001D1981908903246012306A903A800F076
:1009800027FB03AB83E807006D10641C002DE3D147
:100990004FF0010332466946B8F1000F03A802D0B8
:1009A00000F001FB01E000F013FBC9E90001C9F808
:1009B00008200AB0BDE8F087F02800000048704722
:1009C0002C0100207546FFF7F9FFAE460500694689
:1009D000534620F00700854618B020B5FFF7EEFB20
:1009E000BDE820404FF000064FF000074FF0000830
:1009F0004FF0000B21F00701AC46ACE8C009ACE8B1
:100A0000C009ACE8C009ACE8C0098D46704710B514
:100A10000446AFF300802046BDE81040FFF7BABBA4
:100A20004FF0013C50F8042B51F8043B9A4221D17D
:100A3000A2EB0C03934313EACC1317D150F8042B09
:100A400051F8043B9A4215D1A2EB0C03934313EAED
:100A5000CC130BD150F8042B51F8043B9A4209D126
:100A6000A2EB0C03934313EACC13DBD04FF000004E
:100A7000704700BFD01A01BAB1FA81F101F0180134
:100A800022FA01F0CB40C1F12001DBB2C0B2C01AA2
:100A90002CFA01F3D11A914311EAC311E6D1704740
:100AA00001491820ABBEFEE72600020070475FEA4E
:100AB000400C08BF91F0000F4FEA8C234FEAC1228F
:100AC00043EA51514FEA1C5018BF00F5F0404FEA7D
:100AD000300018BF41F000415FEA6C5C00F02980F3
:100AE000BCF1FF3F08BF40F080407047130C06BFC9
:100AF00012044FF0100C4FF0000C130E04BF120242
:100B00000CF1080C130F04BF12010CF1040C930F2D
:100B100004BF92000CF1020CD30F04BF52000CF181
:100B2000010C11464FF00002A0F11F00A0EB0C00D9
:100B3000704711F0004F08BF704731F000413FF49B
:100B4000D5AF0B0C06BF09044FF0100C4FF0000C92
:100B50000B0E04BF09020CF1080C0B0F04BF0901B6
:100B60000CF1040C8B0F04BF89000CF1020CCB0FAD
:100B700004BF49000CF1010CCCF12003A0EB0C00E8
:100B800022FA03F302FA0CF241EA030100F1010038
:100B9000704720F07F4C80EA030023F07F47ACEBE6
:100BA000070303F57C5300F0004003F1FF032DE938
:100BB00080494FEA154B09B44FEA144325EA0B4E1E
:100BC00024EA03480FF2042606EB132749083E786F
:100BD0005FEA320203FB0667C7F5000707FB06F66C
:100BE0004FEA54374FEAD64606F1020607FB066C79
:100BF000CCF1005C4FEA1C472CEA074C07FB06F4DB
:100C00000CFB06F504EB15464FEA961634BF0020A0
:100C10004FF000404FEAD13706FB07FC4FEA1C4C6F
:100C20000CFB0BF7D21B03FB0CF761EB07010CFB72
:100C30000EF7B0EB074072EB17420CFB08F734BF1E
:100C4000A2EB0742B2EB074261EB17414FEA0C44BB
:100C50004FEA910706FB07FC4FEA1C4C0CFB0BF715
:100C6000B0EBC74072EB573203FB0CF734BFA2EB7B
:100C7000C742B2EBC74261EB57310CFB0EF7B0EB4A
:100C8000C70072EB57720CFB08F734BFA2EBC70228
:100C9000B2EBC70261EB5771039F4FEA816141EAF2
:100CA000921104EBCC044FEAD1374FEA826206FB83
:100CB00007FC42EA90124FEA80604FEA1C4C0CFBA2
:100CC0000BF7D21B03FB0CF761EB07010CFB0EF7D4
:100CD000B0EB074072EB17420CFB08F734BFA2EBF6
:100CE0000742B2EB074261EB17414FEA8C554FEADE
:100CF000910704EB9C2406FB07FC4FEA1C4C0CFB01
:100D00000BF7B0EBC74072EB573203FB0CF734BF65
:100D1000A2EBC742B2EBC74261EB57310CFB0EF7B7
:100D2000B0EBC70072EB57720CFB08F734BFA2EBB5
:100D3000C702B2EBC70261EB577115EB4C254FEAC6
:100D4000816141EA92114FEA82624FEAD13742EA69
:100D5000901206FB07FC44F100044FEA80604FEA62
:100D60001C4C0CFB0BF7D21B03FB0CF761EB0701D0
:100D70000CFB0EF7B0EB074072EB17420CFB08F7C9
:100D800034BFA2EB0742B2EB074261EB174115EB10
:100D90001C154FEA813141EA92414FEA823242EA20
:100DA00090424FEA80304FEA0C7644F1000448EA62
:100DB00003434EEA0B484FF0000EB2EB080C71EB08
:100DC000030724BF624639464EEB0E0E4FF0000B70
:100DD0000018524149414BEB0B0BB2EB080C71EB85
:100DE00003077BF1000B24BF624639464EEB0E0E23
:100DF0004FF0000B0018524149414BEB0B0BB2EB8B
:100E0000080C71EB03077BF1000B24BF62463946E7
:100E10004EEB0E0E51EA020718BF46F0010616EB24
:100E20000E7655F1000254F1000103D5BDE88901A9
:100E3000BDE80088BDE88901BDE80048B619524107
:100E400041EB0101A3F10103704780807F7E7D7C2F
:100E50007B7A7978777676757473727171706F6E4C
:100E60006E6D6C6C6B6A6A696868676666656464F7
:100E7000636362616160605F5F5E5E5D5D5C5C5B81
:100E80005B5A5A59595858575756565555555454F0
:100E9000535352525251515050504F4F4F4E4E4D4E
:100EA0004D4D4C4C4C4B4B4B4A4A4A49494948489A
:100EB00048474747474646464545454444444443DA
:100EC00043434342424242414141002B9C4630D47D
:100ED00077002BD01CB54FEA370703B44FF0100052
:100EE0004FF01001BAF1000F06D0BCF1000FDCBFCB
:100EF00040F0080040F008014FF000000FBCBDE8D2
:100F000010400BF1010BBBF1010F08BF5FEA17079F
:100F100022BF12F1010211F101014FF0004143F132
:100F2000000300F0004043EA00007047F9D357087F
:100F3000D0E746EA064613F1400F4FEA16461FDD9A
:100F400013F1200FDFBF16430A46002120335B4216
:100F5000BED0C3F1200746EA064602FA07F74FEA79
:100F6000164646EA0706C3F1200722FA03F201FA01
:100F700007F721FA03F14FF0000342EA0702A7E75F
:100F800046EA020646EA06464FEA164646EA0106E1
:100F9000BCBF46EA0646360C4FF000034FF0000295
:100FA0004FF0000194E72DE9804C9A46934670B4C7
:100FB00091E8380007C831EA400C48BF34EA430CD6
:100FC00003D5FFF7E6FDFFF780FFF0BCBDE8008C1E
:100FD0002DE9804C9A46934670B491E8380007C8D2
:100FE00010F0804F08BF13F0804F03D100F005F8D8
:100FF000FFF76BFFF0BCBDE8008C20F07F4780EA74
:10100000030023F07F4C07EB0C03A3F57C5300F0A7
:101010000040A3F1FE0392F0000F00F0B38095F0C2
:10102000000F00F077802DE901494FEA11404FEAA7
:10103000144621EA004800FB06FC24EA064708FBA8
:1010400006F607FB08F800FB07F718EB06484CEB21
:10105000164C4FEA124B18EB07484FEA15464CEB7B
:10106000174022EA0B4E0BFB06FC25EA06470EFB57
:1010700006F607FB0EFE0BFB07F71EEB064E4CEBCE
:10108000164C4FF000061EEB074E4CEB174B18EBBF
:101090000B0840F1000018EB0E0B58EB000840F174
:1010A00000008F1A4FF000013CBFC943661B14BFFC
:1010B000B5EB040C00213CBFC943F61B4FEA1744B3
:1010C0004EEA8E0E27EA04454FEA1C4704FB0762EE
:1010D0002CEA074C05FB07F70CFB05F604FB0CFCA0
:1010E00016EB074642EB174216EB0C4642EB1C424E
:1010F0001BEB060658EB0202414146EA9E0601D56B
:10110000BDE80189B619524141EB0101A3F1010388
:10111000BDE801894FEA14454FEA114724EA054624
:1011200021EA074C05FB07F406FB07F70CFB06F169
:1011300005FB0CFC11EB074144EB17444FEA124747
:1011400011EB0C4144EB1C4422EA074C05FB07F26F
:1011500006FB07F70CFB06F605FB0CFC16EB074637
:1011600042EB174216EB0C4642EB1C456A1854F151
:10117000000148BF7047B619524141EB0101A3F18C
:101180000103704795F0000F37D04FEA11424FEA44
:10119000144721EA024624EA074C02FB07F106FB4A
:1011A00007F70CFB06F402FB0CFC14EB074441EBC5
:1011B00017414FEA154714EB0C4441EB1C4125EA5B
:1011C000074C02FB07F506FB07F70CFB06F602FBD4
:1011D0000CFC16EB074645EB174516EB0C4645EBAA
:1011E0001C42121951F1000148BF7047B619524113
:1011F00041EB0101A3F1010370474FEA14454FEAA7
:10120000114724EA054621EA074C05FB07F106FBD6
:1012100007F70CFB06F24FF0000605FB0CFC12EB87
:10122000074241EB174112EB0C4251EB1C4148BF06
:101230007047921841EB0101A3F101037047FEE7EB
:1012400010B50022012100F08AF8BDE81040052009
:1012500000F0C2B910B50446029821602271637192
:10126000A0712820A0720620E0710C2020721420AA
:1012700060720820E072322000F0AEF900223321C3
:10128000204600F06CF8052000F0A6F9002233217A
:10129000204600F064F8052000F09EF9002232217B
:1012A000204600F05CF8052000F096F9002220218D
:1012B000204600F054F8052000F08EF9E179002274
:1012C000204600F04CF8217A0022204600F047F832
:1012D000617A0022204600F042F8A17A00222046DE
:1012E00000F03DF800220121204600F038F82046A9
:1012F0000022BDE81040022100F031B830B444793A
:1013000000238C4201D8641EE1B28479944201D852
:10131000641EE2B232B1012A06D0022A06D0032AA4
:1013200006D007E00B4605E0403102E0143100E052
:101330005431CBB230BC43F08001002200F00FB832
:10134000012200F00CB870B50C46054603E02846B3
:10135000641CFFF7F5FF21780029F8D170BD7CB53A
:1013600006460807040EF07A01F0F00518B145F0C2
:10137000080544F00804012A01D02AB108E045F02C
:10138000010544F0010403E025F0010524F0010407
:1013900045F004008DF80400012000F01DF98DF8DF
:1013A000055044F004008DF80600012000F014F907
:1013B0004FF47A708DF8074000903179042301AA28
:1013C000306800F00BFB7CBD00F088BF10B50368EF
:1013D00000225A624FF47A7303E00268546A9C4216
:1013E000FCD3491E89B2F8D210BD036800225A62AC
:1013F0000068426A8A42FCD370470068FFF7E6BF84
:101400000068FFF7F2BF30B482608380016030BCB7
:101410000846FFF7D9BF2DE9F0410746002500F047
:101420005BF800240126384600F065F800213846B4
:1014300000F0C6F802213846FFF7E2FF384600F018
:101440004BF8384600F00FF818B106FA04F02843BC
:10145000C5B23C213846FFF7D3FF641C082CE2DB01
:101460002846BDE8F0818188806800F0E3B970B556
:10147000044600F051F801212046FFF7BEFFCC21C1
:10148000204600F06CF84421204600F068F84FF444
:1014900048712046FFF7B1FF204600F03DF80121DA
:1014A0002046FFF7AAFFCC21204600F058F8BE21C5
:1014B000204600F054F82046FFF7ADFF05462046D1
:1014C000FFF7A9FF45EA002001F00AFD6FF00301D4
:1014D00001F0F9FDE06070BD1FB5002100910191A0
:1014E00002910391818800910121029180686946EF
:1014F00000F0B0F81FBD1FB50021009101910291CD
:10150000039181880091012101910221039180685A
:10151000694600F09FF81FBD70B50546FFF7EBFF69
:101520000021284600F04CF84FF4F0712846FFF7F0
:1015300067FF2846FFF7D0FF50212846FFF760FFDE
:101540002846FFF790FF40B15FF0FF044FF4C871E9
:101550002846FFF755FF204670BD0124F6E72DE928
:10156000F0410E460746FFF7C6FF0024012505FAA5
:1015700004F03042384611D0FFF7BDFF0021384655
:1015800000F01EF801213846FFF73AFF3846FFF712
:10159000A3FF32213846FFF733FF0CE0FFF7ABFF24
:1015A0000021384600F00CF832213846FFF728FFBA
:1015B0003846FFF791FF641C082CD8DBBDE8F081AA
:1015C00083880A468068194600F039B970474FF49D
:1015D000004000F033B8000070B5044600F034F964
:1015E0000546601C02D004480078044400F02CF941
:1015F000401BA042FAD370BD1000002070B500F06F
:10160000D5FD0B4900200B4C886002464FF4804109
:10161000204600F014F9651400222946204600F007
:101620000EF92946BDE870400022034800F007B9D2
:1016300000000020000C014000100140044910B5DA
:101640000A68024202D00860FFF7D8FF10BD000010
:10165000140401402DE9F84FDFF8B891002409F196
:10166000040A0AF1040B23460F270BF1040EC9E00C
:101670000125A5402A40AA427DD1674ED1F804C079
:10168000ACEB0608B44532D014DCBCF1030F3AD001
:1016900009DCBCF1000F2AD0BCF1010F1CD0BCF159
:1016A000020F31D11DE0BCF1110F17D0BCF1120FA8
:1016B0002AD119E0B8F5881F19D006DCB8F5803FAB
:1016C00015D0B8F5801F1FD111E0B8F5001F0ED05E
:1016D000B8F5041F18D10AE0CB6815E0CB681B1DD4
:1016E00012E0CB6808330FE0CB680C330CE08B685A
:1016F0002BB1012B4FF0080303D0456104E0042314
:1017000002E0056100E00023FF2A01D8064601E05F
:1017100000F104064FEA840501D9A5F12005D6F8A9
:10172000008007FA05FC28EA0C0803FA05F548EAE8
:101730000508C6F800804D68ED0062D5374DAE69EA
:1017400046F00106AE61AD6924F0030605F001051F
:101750000095334D06EB050CDCF80850A607360F54
:1017600007FA06F825EA0805DFF8B880404503D1F6
:101770004FF0000817E044E0DFF8AC80404502D1AC
:101780004FF001080FE0DFF8A480404502D14FF090
:10179000020808E0DFF89880404502D14FF00308C6
:1017A00001E04FF0040808FA06F848EA0508CCF80A
:1017B00008804D68D9F80060ED034D4601D5164309
:1017C00000E096432E604D68DAF80060AD035546A0
:1017D00001D5164300E096432E604D68DBF80060AB
:1017E000ED025D4601D5164300E096432E604D683C
:1017F000DEF80060AD02754601D5164300E0964361
:101800002E60641C0D682A46E5407FF431AFBDE8C8
:10181000F88F000000040140000011100010024089
:101820000000014000080140000C01400010014090
:10183000001401408068084000D0012070470AB1C0
:10184000016170470904FBE70148806870470000A8
:101850001000002070B5040025D094F83D0000254C
:1018600020B984F83C50204600F04EF9242084F83A
:101870003D002068016821F00101016020680168D5
:1018800041F4004101602068016821F400410160D9
:1018900000F0A6FA4D4A6168914201D84C4900E037
:1018A0004C49884201D2012070BD4B492368B0FBEE
:1018B000F1F15E6826F03F060E435E606368934276
:1018C00006D94FF4967359434FF47A73B1FBF3F191
:1018D0002368491C1E6A26F03F063143196261687D
:1018E000914210D84900401EB0FBF1F2521CC2F3E5
:1018F0000B02042A01D2042022E0B0FBF1F0401CCC
:10190000C0F30B001CE0A268F2B301EBC10303EBD0
:101910000116431EB3FBF6F35B1C43F480431B0527
:1019200049D092B301EBC10202EB0111401EB0FBA2
:10193000F1F0401CC0F30B0040F4804040F4004044
:101940002168CA694CF6FF739A431043C861D4E911
:10195000071001432068026822F0C00211430160B1
:10196000D4E9030101432068826848F2FF339A43B7
:1019700011438160D4E9050108432168CA6822F057
:10198000FF021043C86001E00EE016E02068016825
:1019900041F0010101602564202084F83D002563A9
:1019A00084F83E50002070BD01EB4106431EB3FB9E
:1019B000F6F35B1CB3E70120C2E701EB4101401ED7
:1019C000B0FBF1F0401CC0F30B00B7E7A0860100AC
:1019D00080841E0000093D0040420F002DE9F84FB1
:1019E0001F4690468A460446DDF82890FFF72CFFF4
:1019F000054694F83D0020287FD119230122404953
:101A00002046009500F0F2FD002876D194F83C00C5
:101A1000012872D0012084F83C0020680168C907C1
:101A200003D1016841F0010101602068016821F4DF
:101A300000610160212084F83D00102084F83E0000
:101A400000262664C4F824806785608D20852D4893
:101A5000E0622B464A465146204600F053FD90B9BD
:101A6000206841698069009036E02A464946204650
:101A700000F03BFE50B1206C042804D120680168BE
:101A800041F4007101600120BDE8F88F606A2168AF
:101A900000780861606A401C6062618D491E618542
:101AA000218D491E89B2218522685369DB435B077A
:101AB0000BD451B100781061606A401C6062608D87
:101AC000401E6085208D401E20852A4649462046BE
:101AD00000F066FD0028CED1208D0028C5D154F835
:101AE0003D0B016841F400710160202004F81E09DB
:101AF000E67766770020C7E7FFE70220C4E700002B
:101B0000020010000000FFFF10B586B00021009118
:101B100001910291039100680F4988421AD10F4C3C
:101B2000A06940F00800A061A069694600F00800C3
:101B30000490C020009012200190032003900848D8
:101B4000FFF788FDE06940F40010E061E06900F40F
:101B50000010049006B010BD005400400010024078
:101B6000000C01400248816802781144816070478E
:101B700010000020074810B5016841F01001016015
:101B8000032000F075F80F2000F006F800F024F8AC
:101B9000002010BD0020024070B50D4D04464FF4EA
:101BA0007A712878B1FBF0F00A490968B1FBF0F0CE
:101BB00000F003FB48B9102C07D200222146501E2A
:101BC00000F036F800206C6070BD012070BD000090
:101BD000100000201C0000200C4808B5816941F06D
:101BE00001018161816901F001010091C16941F048
:101BF0008051C161C06900F0805000900448416884
:101C000021F0E06141F00071416008BD0010024028
:101C100000000140002809DB00F01F020121914073
:101C20004009800000F1E020C0F80011704700007A
:101C3000F0B40E4B1B680C46C3F30223C3F1070537
:101C4000042D00D90425191D072901D2002300E025
:101C5000DB1E012606FA05F1491E214099409E40EF
:101C6000761E16403143F0BC00F017BF0CED00E0CB
:101C7000064900F0070208684FF6FF03184040EAE3
:101C80000220034A10430860704700000CED00E09A
:101C90000000FA050648026822F0040202600129E9
:101CA00003D040BF20BF20BF704730BF7047000047
:101CB00010ED00E02DE9F0470F46050061D0434EDE
:101CC000306800F00700B84209D2306820F0070001
:101CD00038433060306800F00700B84251D12868BE
:101CE0003B4C810712D5400703D5606840F4E060A3
:101CF00060602878000703D5606840F46050606039
:101D00006068A96820F0F000084360602878C00788
:101D100028D06868012810D02168022810D08907CF
:101D200000292EDA616821F0030101436160FFF7A9
:101D30008BFD804641F288390DE021688903EFE789
:101D40008901EDE7FFF780FDA0EB0801494502D9C5
:101D50000320BDE8F0876068696800F00C00B0EB14
:101D6000810FEFD1306800F00700B8420BD930681E
:101D700020F0070038433060306800F00700B842B8
:101D800001D00120E5E72878400705D56068E968BB
:101D900020F4E060084360602878000706D560689A
:101DA000296920F4605040EAC100606000F038F812
:101DB0006168084AC1F30311515CC84006490860D4
:101DC00006480068FFF7E8FE0020C2E70020024056
:101DD00000100240423100081C00002014000020C6
:101DE0000448054900684968044AC1F30221515C6E
:101DF000C84070471C00002000100240523100080B
:101E00000448054900684968044AC1F3C221515C8D
:101E1000C84070471C0000200010024052310008EA
:101E200012A185B00FC98DE80F0014A0144A0068F4
:101E300004905168134801F00C03042B10D0082BB8
:101E40000ED1C1F38343C9031DF803000AD55168BD
:101E500004AAC1F34041515C0A4A5043B0FBF1F07F
:101E600005B0704708494843FAE70000020304053B
:101E7000060708090A0B0C0D0E0F101001020000D6
:101E80000010024000127A0000093D002DE9F84FD1
:101E9000040070D02078C04DC00749D06868C0F3F6
:101EA0008100012807D06868C0F38100022809D1A9
:101EB0006868C00306D52868800339D560680028A3
:101EC000E7D035E06068B0F5803F0BD010B1B0F5D9
:101ED000A02F11D0286820F480302860286820F4D2
:101EE000802002E0286840F480302860606890B16B
:101EF000FFF7AAFC06460AE0286840F48020286024
:101F0000F0E700BFFFF7A0FC801B642873D82868A7
:101F10008003F7D50CE0FFF797FC064605E000BF0D
:101F2000FFF792FC801B6428F0D828688003F7D460
:101F300020789A4E80074FF001094FF0000839D5FC
:101F4000686810F00C0F07D06868C0F381000228A1
:101F500009D16868C00306D42868800714D52069B1
:101F6000012808D110E02069B0B1C6F80090FFF751
:101F70006BFC074605E00AE1FFF766FCC01B022880
:101F8000C4D828688007F7D52868616920F0F80070
:101F900040EAC10028600DE0C6F80080FFF754FC5D
:101FA000074604E0FFF750FCC01B022823D828682E
:101FB0008007F7D4207800072CD57948A169D9B1DA
:101FC000C0F80090FFF740FC074604E0FFF73CFC38
:101FD000C01B02280FD8686A8007F7D571484FF4F4
:101FE000FA510068B0FBF1F0009000BF0098411E6C
:101FF0000091FAD20EE080E0C0F80080FFF724FCE8
:10200000074604E0FFF720FCC01B022875D8686A69
:102010008007F7D42078400760D5E8690027C00022
:1020200008D4E86940F08050E861E869012700F0D1
:10203000805000905C480168C90513D4016883464C
:1020400041F480710160FFF7FFFB824606E000BFAC
:10205000FFF7FAFBA0EB0A0064284ED8DBF800007B
:10206000C005F5D5E06801280AD008B1052813D0CD
:10207000286A20F001002862286A20F0040002E0AB
:10208000286A40F001002862E06841F2883B98B17C
:10209000FFF7DAFB82460BE0286A40F00400286272
:1020A000EEE700BFFFF7D0FBA0EB0A0159455AD875
:1020B000286A8007F6D50CE0FFF7C6FB824605E0EC
:1020C000FFF7C2FBA0EB0A0159454CD8286A8007EC
:1020D000F6D41FB1E86920F08050E861E06988B368
:1020E0006968C1F38101022944D00228C6F86080E2
:1020F00004D0FFF7A9FB044638E034E0FFF7A4FB67
:10210000074604E0FFF7A0FBC01B02282BD8286875
:102110008001F7D4206AB0F5803F05D16868A168D6
:1021200020F4003008436860D4E908010843696876
:1021300021F4741108436860C6F86090FFF784FBCF
:10214000044606E025E000BFFFF77EFB001B0228E7
:1021500009D828688001F7D51BE000BFFFF774FBA2
:10216000001B022802D90320BDE8F88F28688001EF
:10217000F4D40EE00128F7D06868226A00F48031B8
:10218000914204D1616A00F47010884201D00120AC
:10219000EAE70020E8E700000010024000004242A9
:1021A000800442421C000020007000404FF0E020FC
:1021B000016941F002010161704710B5401EB0F1A4
:1021C000807F01D3012010BD4FF0E02460610F211A
:1021D000601700F062FC0020A06107202061002051
:1021E00010BD4FF0E020016921F00201016170474C
:1021F00070B590F83C20012A26D0012480F83C409C
:10220000022280F83D2003685A689D6822F070061B
:102210000A6832435A600D4B02689A4208D0B2F104
:10222000804F05D00A4B9A4202D00A4B9A4204D101
:10223000496825F080031943916080F83D400021F2
:1022400080F83C10084670BD022070BD002C014093
:10225000000400400008004010B5040003D094F8CA
:102260003D0010B107E0012010BD002084F83C00C3
:10227000204600F01FF8022084F83D00211D206850
:1022800000F02EFB012084F8460084F83E0084F81C
:102290003F0084F8400084F8410084F8420084F84C
:1022A000430084F8440084F8450084F83D00002091
:1022B00010BD000008B500680649884208D10648EC
:1022C000C16941F00401C161C06900F004000090DF
:1022D00008BD0000000800400010024090F83D10CA
:1022E000012901D001207047022180F83D100068CB
:1022F0000B49884208D0B0F1804F05D00949884287
:1023000002D00949884204D1816801F007010629F9
:1023100003D0016841F00101016000207047000016
:10232000002C0140000400400008004070B5044645
:1023300090F83C00012817D0012584F83C50022079
:1023400084F83D002068826822F0770222F47F4200
:1023500082600868502830D00DDC20284DD005DC84
:1023600098B310283BD148E0022070BD302844D0FB
:10237000402834D139E0602828D0702806D0B0F544
:10238000805F2CD0B0F5005F29D10AE0CB68D1E99D
:102390000121206800F0DAFA2068816841F07701B5
:1023A00009E0CB68D1E90121206800F0CFFA20686C
:1023B000816841F48041816011E0CA684968206801
:1023C00000F0D6FA5021206807E016E0CA68496894
:1023D000206800F0DEFA6021206800F0C1FA84F87D
:1023E0003D50002084F83C0070BDCA6849682068F0
:1023F00000F0BEFA40212068EFE72268014610464F
:10240000EBE770B5040004D094F83D00002510B14E
:1024100006E0012070BD84F83C50204600F022F810
:10242000242084F83D002068C16821F40051C16077
:10243000204600F0C1FA2068016921F49041016151
:102440002068416921F02A0141612068C16841F496
:102450000051C1602564202084F83D0084F83E00CE
:10246000002070BD30B585B0002400940194029422
:10247000039400681449884224D11448816941F4C6
:1024800080418161816901F480410491816941F059
:102490000401816180690E4D00F0040004904FF446
:1024A00000700090022001900320039069462846A6
:1024B000FFF7D0F82815CDE90004694628460294B4
:1024C000FFF7C8F805B030BD0038014000100240E9
:1024D00000080140FEE701684A69D24352050FD463
:1024E0006FF480624A61002140F8301F202242735D
:1024F0008173026942F00402026101730120704796
:1025000000207047F8B50446C06A1E460D461746BF
:10251000082807D0012805D010F5803F02D0206B95
:10252000122804D12068016841F4807101601346CB
:1025300000224FF001112046009600F057F840B1FC
:1025400020680068C00502D54FF4007020640320A5
:10255000F8BD2069B0F5804F0ED00620216800EA52
:10256000D51040F0F000086133463A460B4920464A
:1025700000F070F878B902E005F0FE0000E0E8B283
:1025800021680861054933463A46891F204600F014
:1025900061F80028DCD00120F8BD0000080001002F
:1025A00070B516460D4604460DE02046FFF793FF32
:1025B00008B1012070BD681C05D0FFF745F9801BEC
:1025C000A84207D835B120684069C0434007ECD421
:1025D000002070BD002044F8300F20216173A073EB
:1025E000216941F0200121612073E2E72DE9F047E4
:1025F0001E4690460D460446C1F30747DDF820907D
:1026000008E0701C06D0FFF71FF9A0EB0900B042EC
:102610000FD876B12068012F18D0806925EA000014
:102620000004000C14D000214145EAD00020BDE890
:10263000F087002044F8300F20216173A0732169D6
:1026400041F02001216120730120F0E74069E5E7B6
:102650000121E9E72DE9F0479A4691460E460446E6
:1026600000254FF02008C1F3074725E020684069A6
:10267000C043400514D42068016841F40071016032
:1026800021686FF480604861256384F83D8084F898
:102690003E50206C40F00400206484F83C501FE061
:1026A000B9F1FF3F08D0FFF7CFF8A0EB0A01494589
:1026B0000CD8B9F1000F09D02068012F13D0806920
:1026C00026EA00000004000C0BD0CFE744F8305F8E
:1026D00084F80D80A573206940F0200020612573E7
:1026E0000120BDE8F0874069EAE770B516460D465F
:1026F00004460DE02046FFF7EEFE08B1012070BD54
:10270000681C05D0FFF7A0F8801BA84207D835B198
:1027100020684069C0430006ECD4002070BD002052
:1027200044F8300F20216173A073216941F020012A
:1027300021612073E2E700002DE9F04385B0002419
:102740002E480094019402940394816941F0100191
:102750008161816901F010010491816941F02001DA
:102760008161816901F020010491816941F00801D2
:102770008161816901F008010491816941F00401DE
:1027800081618069DFF8788000F004004FF4005523
:102790000490002229464046FFF751F8DFF8649084
:1027A0004FF4E047002239464846FFF748F80095C5
:1027B000022601250396CDE9015469464046FEF7FD
:1027C00049FF00970396CDE9015469464846FEF754
:1027D00041FFE80300900C48CDE9010569464846F1
:1027E000FEF738FF002211462820FFF721FA2820A3
:1027F000FFF710FA05B0BDE8F083000000100240BA
:1028000000100140000C01400000211010B586B0FE
:1028100000241748009401940294039404941349EB
:10282000059401604821C0E901144FF6FF71C0E929
:1028300003148461FFF710FD08B172B6FEE74FF490
:102840008050009069460A48FFF770FD08B172B6E3
:10285000FEE7049404A906480594FFF7C9FC002884
:1028600001D072B6FEE706B010BD000000080040BF
:1028700020000020FEE7FEE770477047FFF772B9BF
:1028800030B58FB028216846FDF745FD14210AA810
:10289000FDF741FD01210804CDE900100024029458
:1028A00002250491CDE907504FF4E01009906846E5
:1028B000FFF7ECFA08B172B6FEE70F20CDE90A0582
:1028C0004FF48060CDE90C4002210AA80E94FFF776
:1028D000F1F9002801D072B6FEE70FB030BD7047A5
:1028E000F0B50268164B174C174D4FF080479842D1
:1028F00005D0B84203D0A04201D0A84203D122F0B3
:1029000070064A683243984205D0B84203D0A042CC
:1029100001D0A84203D122F44074CA6822434C6912
:1029200022F08002224302608A68C2620A688262E0
:10293000984201D10969016301214161F0BD0000A4
:10294000002C0140000400400008004010B58468DD
:1029500042EA032224F47F440A432243826010BDEA
:10296000826822F070020A4342F0070181607047DA
:1029700010B5036A046A24F001040462846924F037
:10298000F00444EA021423F00A020A43846102625A
:1029900010BD10B5036A23F0100303628369046A53
:1029A00023F4704343EA023224F0A00343EA011106
:1029B0008261016210BD000070B5044600680169C3
:1029C000E26821F44051114301612169A068084384
:1029D000616908432168CA6841F20C639A43024363
:1029E000CA6020684169A26921F4407111434161C4
:1029F0001E492068884202D1FFF702FA01E0FFF782
:102A0000EFF900EBC00101EB001260686421800067
:102A1000B2FBF0F3B3FBF1F36FF018067343B2FBB4
:102A2000F0F5B2FBF0F605EB8305322303EB051559
:102A3000B5FBF1F5B6FBF1F605F0F00505EB061573
:102A4000B2FBF0F6B2FBF0F0B0FBF1F06FF0180261
:102A5000504306EB800003EB0010B0FBF1F021685F
:102A600000F00F002844886070BD0000003801406D
:102A7000FEE7490050EAC12018BF04204A0D18BFE4
:102A800040F0010040F2FF72B2EB515F08BF40F02E
:102A90000200012808BF052070470907090E002819
:102AA00004DB00F1E02080F80014704700F00F0014
:102AB00000F1E02080F8141D704730380A2801D258
:102AC000012070470020704708B5FFF753F8FFF763
:102AD000D7FEFFF731FEFFF799FEAB48A949002466
:102AE0000160AA49C0E901144FF48049C0E90349D3
:102AF00044618461C4610462FEF7ACFE08B172B641
:102B0000FEE7A148A249543001604FF4E131C0E929
:102B100001140C21C460C0E904418461C461FFF761
:102B200070FC08B172B6FEE797499A4D48394FF4E8
:102B300080532A4601F1E000FEF765FC9249022726
:102B400010234E2201F1A8000097FEF783FB8E4868
:102B50009830FEF78CFC904C904EE06004E08A4880
:102B60009830FEF784FCE060B042F8DADFF830A27B
:102B70004FF001084FF4005683489830FEF777FC79
:102B8000E060216800F03AFA01D8C4F80880616872
:102B9000E06800F0B9F97CD8A760A068012852D19C
:102BA00079489830FEF763FCE06001223146284600
:102BB000FEF745FE012231465046FEF740FE002258
:102BC00049462846FEF73BFE6F4800221146A830D2
:102BD000FEF794FBE06800F045F902466A480B46B0
:102BE00070A1B430FDF7FCFA6749B431A1F10C00D3
:102BF000FEF7A9FB2168E06800F000FA07D86248F8
:102C000001220021A830FEF779FB6BA117E0616873
:102C1000E06800F079F95C484FF001024FF00001E4
:102C200000F1A80008D8FEF769FB574867A1A83053
:102C3000FEF789FBA76009E0FEF760FB68A1524838
:102C4000A830FEF780FBA068022856D14E48983085
:102C5000FEF70DFCE060012249462846FEF7EFFD35
:102C6000012231465046FEF7EAFD00223146284651
:102C7000FEF7E5FD444800221146A830FEF73EFB72
:102C8000E06800F0EFF802463F480B4645A1B4303B
:102C900000E032E0FDF7A4FA3B49B431A1F10C00A9
:102CA000FEF751FB6168E06800F02EF907D836485E
:102CB00001220021A830FEF721FB4EA119E0216876
:102CC000E06800F09BF930484FF001024FF000013E
:102CD00000F1A8000AD8FEF711FB2B484AA1A83042
:102CE000FEF731FB4046C4F8088057E7FEF706FBC5
:102CF0003BA12548A830FEF726FBA06800287FF4FA
:102D00004CAF6168E06800F079F9BFF435AF216835
:102D1000E06800F0F9F8F8D2A06800287FF42CAF42
:102D2000002231465046FEF78AFD1748A830FEF7CC
:102D300087FA154800221146A830FEF7DFFAE0684E
:102D400000F090F8024610480B4616A1B430FDF78B
:102D500047FA0D49B431A1F10C00FEF7F4FA0A4824
:102D600001220021A830FEF7C9FA07482AA1A8309D
:102D7000FEF7E9FAFFF735FA01210020FEF78AFF96
:102D8000FAE600000054004068000020A086010020
:102D900000380140000C0140000000200000C84144
:102DA0000010014054454D502D494E2D433A252EDB
:102DB00031662020000000004849474820414C452A
:102DC0005254212120202020000000004C4F572089
:102DD000414C455254212120202020200000000099
:102DE000505245535320425554544F4E21212020D8
:102DF000200000004C4F5720414C455254212120C7
:102E000020202020200000004C4F5720414C4552EC
:102E10005421212020202000534C454550204D4F67
:102E200044452020202020202020000010B500292B
:102E30000AD00878002807D005487844FDF7F0FD4F
:102E4000002801D0002010BD0248784410BD0000C9
:102E5000D6030000CE0300000808A0F500114FEAD9
:102E60003101704743004FEAD30C4FEA3C0C43401A
:102E70001FBF40070CF1605113F0FE4F70471CF06C
:102E8000006F03D100200CF0004170470CF00043AC
:102E900043EA507010B540EACC0000F069F800BF7A
:102EA000000000924FEA0001FFF7D6BF4FF000414B
:102EB0004FF00000A1F5002170470000014800F02C
:102EC000D0B800BF0000C07F401058BFC0F14040E4
:102ED000491058BFC1F140418142EFF30080704773
:102EE000B0FA80F310FA03F2C3F19D030AD0D905BA
:102EF00001EB1220530638BF704700F1010008BFF4
:102F000020F001007047000050EA010C00F113802E
:102F10001CF5000F58BFBCF5000F01D48842704764
:102F200007D710F5000F58BF11F5000F15D48842D0
:102F30007047894270471CF5000F04D5BCF5000F9F
:102F4000F7D5814270474FF0807C1CEB400F38BFB3
:102F50001CEB410F01D28142704710B500F008F818
:102F6000922449004FF000504FF08051FFF7ACBF62
:102F70000EF1020E2EF0030E5EF8044B244204D430
:102F80004FEA4102B2F17F4F11D84FEA4003B3F14B
:102F90007F4F0CD80ED14FEAD07CB2F17F4F0CEBB3
:102FA0004C0C0CF1020C08BF4CEBD17C04E04FF050
:102FB000080C01E04FEAD17C0CEB4C0324FA03F43B
:102FC00004F00704B4F1040C06D20EEB840CBDE847
:102FD00010404CF0010C6047DFE80CF007080202DB
:102FE0004FF00040A0F5800010BD0846420018BF19
:102FF000D2F1807288BF00F0004010BD51EA000C91
:1030000000F113801CF5000F58BFBCF5000F01D470
:103010008142704707D711F5000F58BF10F5000F18
:1030200015D481427047894270471CF5000F04D5C2
:10303000BCF5000FF7D5884270474FF0807C1CEB41
:10304000410F38BF1CEB400F01D28842704780EA25
:10305000010081EA000180EA0100FFF77EBFFDF771
:103060005DBA0CF00F03092B08BF082000F0518057
:103070000A2B0BD0082B18BF704708BF1CF0400F5D
:103080000AD04FF000004FF0000170471CF0400FD5
:1030900018BF4FF0004070471CF0100F08D020F010
:1030A000704300F07F4242EAD3014FEA4370704719
:1030B00000F0604021F07F4242EA000201F07F40D0
:1030C00040EA727070474FF0FF0212EAD0521CBF04
:1030D00092F0FF038B42C2BFD14200EBC150704758
:1030E000002A0AD0002B0BD0002900F00040A4BF1A
:1030F00040F0FE4040F40000704700F00040704790
:1031000043024FF00B0C18BF4CF0806C7FF4D6AE2E
:1031100070471CF4801F11D01CF4E02F03D06FEA1D
:10312000CC31490070474FF04050EFF3008222F05D
:10313000704242EA000282F3008870474FF00000BC
:1031400070470000000000000000010203040607B1
:103150000809000000000102030400000240000012
:10316000000000A00000000005400000000000C8B2
:10317000000000000C4000000000409C0000000027
:10318000194000000020BCBE0000000034400000D8
:10319000BFC91B8E00000004B5400000504BCFD0CB
:1031A0006607E2CF010000006C4100003E8251AA98
:1031B000DFEEA73401000000D9420000DCB5A0E238
:1031C0003A301F97FFFFFFFFB4450000FD25A0C860
:1031D000E9A3C14FFFFFFFFFFF3F00000000008099
:1031E00000000000FF3F0000000000800000000021
:1031F0002C320008000000202000000028010008F8
:103200004C32000820000020700700004401000834
:103210001C00000043000000F8FFFFFF0C0000004E
:103220000E0000000F0000002E0000000000C8414A
:1032300000007041000000000000000001000000DC
:0C32400010000000000000000024F4005A
:04000005080000ED02
:00000001FF
